{
    "_format": "hh-sol-artifact-1",
    "contractName": "Crowdfunding",
    "sourceName": "contracts/Crowdfunding.sol",
    "abi": [
        {
            "anonymous": false,
            "inputs": [
                {
                    "indexed": false,
                    "internalType": "uint256",
                    "name": "campaignId",
                    "type": "uint256"
                },
                {
                    "indexed": false,
                    "internalType": "string",
                    "name": "title",
                    "type": "string"
                },
                {
                    "indexed": false,
                    "internalType": "uint256",
                    "name": "goal",
                    "type": "uint256"
                },
                {
                    "indexed": false,
                    "internalType": "uint256",
                    "name": "deadline",
                    "type": "uint256"
                },
                {
                    "indexed": false,
                    "internalType": "address",
                    "name": "creator",
                    "type": "address"
                }
            ],
            "name": "CampaignCreated",
            "type": "event"
        },
        {
            "anonymous": false,
            "inputs": [
                {
                    "indexed": false,
                    "internalType": "uint256",
                    "name": "campaignId",
                    "type": "uint256"
                },
                {
                    "indexed": false,
                    "internalType": "address",
                    "name": "backer",
                    "type": "address"
                },
                {
                    "indexed": false,
                    "internalType": "uint256",
                    "name": "amount",
                    "type": "uint256"
                }
            ],
            "name": "ContributionMade",
            "type": "event"
        },
        {
            "anonymous": false,
            "inputs": [
                {
                    "indexed": false,
                    "internalType": "uint256",
                    "name": "campaignId",
                    "type": "uint256"
                },
                {
                    "indexed": false,
                    "internalType": "address",
                    "name": "creator",
                    "type": "address"
                },
                {
                    "indexed": false,
                    "internalType": "uint256",
                    "name": "amount",
                    "type": "uint256"
                }
            ],
            "name": "FundsReleased",
            "type": "event"
        },
        {
            "anonymous": false,
            "inputs": [
                {
                    "indexed": false,
                    "internalType": "uint256",
                    "name": "campaignId",
                    "type": "uint256"
                },
                {
                    "indexed": false,
                    "internalType": "address",
                    "name": "backer",
                    "type": "address"
                },
                {
                    "indexed": false,
                    "internalType": "uint256",
                    "name": "amount",
                    "type": "uint256"
                }
            ],
            "name": "RefundIssued",
            "type": "event"
        },
        {
            "inputs": [],
            "name": "campaignCount",
            "outputs": [
                {
                    "internalType": "uint256",
                    "name": "",
                    "type": "uint256"
                }
            ],
            "stateMutability": "view",
            "type": "function"
        },
        {
            "inputs": [
                {
                    "internalType": "uint256",
                    "name": "",
                    "type": "uint256"
                }
            ],
            "name": "campaigns",
            "outputs": [
                {
                    "internalType": "string",
                    "name": "title",
                    "type": "string"
                },
                {
                    "internalType": "uint256",
                    "name": "goal",
                    "type": "uint256"
                },
                {
                    "internalType": "uint256",
                    "name": "deadline",
                    "type": "uint256"
                },
                {
                    "internalType": "uint256",
                    "name": "totalContributed",
                    "type": "uint256"
                },
                {
                    "internalType": "address",
                    "name": "creator",
                    "type": "address"
                },
                {
                    "internalType": "bool",
                    "name": "isFunded",
                    "type": "bool"
                },
                {
                    "internalType": "bool",
                    "name": "isRefunded",
                    "type": "bool"
                }
            ],
            "stateMutability": "view",
            "type": "function"
        },
        {
            "inputs": [
                {
                    "internalType": "uint256",
                    "name": "_campaignId",
                    "type": "uint256"
                }
            ],
            "name": "contribute",
            "outputs": [],
            "stateMutability": "payable",
            "type": "function"
        },
        {
            "inputs": [
                {
                    "internalType": "uint256",
                    "name": "",
                    "type": "uint256"
                },
                {
                    "internalType": "address",
                    "name": "",
                    "type": "address"
                }
            ],
            "name": "contributions",
            "outputs": [
                {
                    "internalType": "uint256",
                    "name": "",
                    "type": "uint256"
                }
            ],
            "stateMutability": "view",
            "type": "function"
        },
        {
            "inputs": [
                {
                    "internalType": "string",
                    "name": "_title",
                    "type": "string"
                },
                {
                    "internalType": "uint256",
                    "name": "_goal",
                    "type": "uint256"
                },
                {
                    "internalType": "uint256",
                    "name": "_deadline",
                    "type": "uint256"
                }
            ],
            "name": "createCampaign",
            "outputs": [],
            "stateMutability": "nonpayable",
            "type": "function"
        },
        {
            "inputs": [],
            "name": "getCampaignCount",
            "outputs": [
                {
                    "internalType": "uint256",
                    "name": "",
                    "type": "uint256"
                }
            ],
            "stateMutability": "view",
            "type": "function"
        },
        {
            "inputs": [
                {
                    "internalType": "uint256",
                    "name": "_campaignId",
                    "type": "uint256"
                }
            ],
            "name": "getCampaignDetails",
            "outputs": [
                {
                    "internalType": "string",
                    "name": "title",
                    "type": "string"
                },
                {
                    "internalType": "uint256",
                    "name": "goal",
                    "type": "uint256"
                },
                {
                    "internalType": "uint256",
                    "name": "deadline",
                    "type": "uint256"
                },
                {
                    "internalType": "uint256",
                    "name": "totalContributed",
                    "type": "uint256"
                },
                {
                    "internalType": "address",
                    "name": "creator",
                    "type": "address"
                },
                {
                    "internalType": "bool",
                    "name": "isFunded",
                    "type": "bool"
                },
                {
                    "internalType": "bool",
                    "name": "isRefunded",
                    "type": "bool"
                }
            ],
            "stateMutability": "view",
            "type": "function"
        },
        {
            "inputs": [
                {
                    "internalType": "uint256",
                    "name": "_campaignId",
                    "type": "uint256"
                },
                {
                    "internalType": "address",
                    "name": "backer",
                    "type": "address"
                }
            ],
            "name": "getContributions",
            "outputs": [
                {
                    "internalType": "uint256",
                    "name": "",
                    "type": "uint256"
                }
            ],
            "stateMutability": "view",
            "type": "function"
        },
        {
            "inputs": [
                {
                    "internalType": "uint256",
                    "name": "_campaignId",
                    "type": "uint256"
                }
            ],
            "name": "refundContribution",
            "outputs": [],
            "stateMutability": "nonpayable",
            "type": "function"
        },
        {
            "inputs": [
                {
                    "internalType": "uint256",
                    "name": "_campaignId",
                    "type": "uint256"
                }
            ],
            "name": "releaseFunds",
            "outputs": [],
            "stateMutability": "nonpayable",
            "type": "function"
        }
    ],
    "bytecode": "0x6080604052348015600f57600080fd5b506001600081905550611e35806100276000396000f3fe6080604052600436106100915760003560e01c80637274e30d116100595780637274e30d146101935780637f647f9d146101be578063aafc92d6146101e7578063c1cbbca714610224578063d993de621461024057610091565b8063141961bc146100965780633020580b146100d95780633d891f59146101025780634d68282f1461013f5780636caa921814610168575b600080fd5b3480156100a257600080fd5b506100bd60048036038101906100b89190610fa2565b610283565b6040516100d097969594939291906110ca565b60405180910390f35b3480156100e557600080fd5b5061010060048036038101906100fb9190611275565b610387565b005b34801561010e57600080fd5b5061012960048036038101906101249190611310565b61058d565b6040516101369190611350565b60405180910390f35b34801561014b57600080fd5b5061016660048036038101906101619190610fa2565b6105b2565b005b34801561017457600080fd5b5061017d6108a9565b60405161018a9190611350565b60405180910390f35b34801561019f57600080fd5b506101a86108b3565b6040516101b59190611350565b60405180910390f35b3480156101ca57600080fd5b506101e560048036038101906101e09190610fa2565b6108b9565b005b3480156101f357600080fd5b5061020e60048036038101906102099190611310565b610b9d565b60405161021b9190611350565b60405180910390f35b61023e60048036038101906102399190610fa2565b610bf8565b005b34801561024c57600080fd5b5061026760048036038101906102629190610fa2565b610d59565b60405161027a97969594939291906110ca565b60405180910390f35b60016020528060005260406000206000915090508060000180546102a69061139a565b80601f01602080910402602001604051908101604052809291908181526020018280546102d29061139a565b801561031f5780601f106102f45761010080835404028352916020019161031f565b820191906000526020600020905b81548152906001019060200180831161030257829003601f168201915b5050505050908060010154908060020154908060030154908060040160009054906101000a900473ffffffffffffffffffffffffffffffffffffffff16908060040160149054906101000a900460ff16908060040160159054906101000a900460ff16905087565b600082116103ca576040517f08c379a00000000000000000000000000000000000000000000000000000000081526004016103c190611417565b60405180910390fd5b42811161040c576040517f08c379a000000000000000000000000000000000000000000000000000000000815260040161040390611483565b60405180910390fd5b6003600081548092919061041f906114d2565b91905055506040518060e00160405280848152602001838152602001828152602001600081526020013373ffffffffffffffffffffffffffffffffffffffff16815260200160001515815260200160001515815250600160006003548152602001908152602001600020600082015181600001908161049e91906116c6565b5060208201518160010155604082015181600201556060820151816003015560808201518160040160006101000a81548173ffffffffffffffffffffffffffffffffffffffff021916908373ffffffffffffffffffffffffffffffffffffffff16021790555060a08201518160040160146101000a81548160ff02191690831515021790555060c08201518160040160156101000a81548160ff0219169083151502179055509050507f55c246c9acac35defa7b5b11325208f9615273b139a7d1642a880afb4568637e60035484848433604051610580959493929190611798565b60405180910390a1505050565b6002602052816000526040600020602052806000526040600020600091509150505481565b6105ba610eff565b600060016000838152602001908152602001600020905080600201544211610617576040517f08c379a000000000000000000000000000000000000000000000000000000000815260040161060e9061183e565b60405180910390fd5b806001015481600301541015610662576040517f08c379a0000000000000000000000000000000000000000000000000000000008152600401610659906118aa565b60405180910390fd5b8060040160149054906101000a900460ff16156106b4576040517f08c379a00000000000000000000000000000000000000000000000000000000081526004016106ab90611916565b60405180910390fd5b3373ffffffffffffffffffffffffffffffffffffffff168160040160009054906101000a900473ffffffffffffffffffffffffffffffffffffffff1673ffffffffffffffffffffffffffffffffffffffff1614610746576040517f08c379a000000000000000000000000000000000000000000000000000000000815260040161073d90611982565b60405180910390fd5b60018160040160146101000a81548160ff02191690831515021790555060008160030154905060008260040160009054906101000a900473ffffffffffffffffffffffffffffffffffffffff1673ffffffffffffffffffffffffffffffffffffffff16826040516107b6906119d3565b60006040518083038185875af1925050503d80600081146107f3576040519150601f19603f3d011682016040523d82523d6000602084013e6107f8565b606091505b505090508061083c576040517f08c379a000000000000000000000000000000000000000000000000000000000815260040161083390611a34565b60405180910390fd5b7f6e3c6096795c8298a218b2cfb8bde42726ff7c9a3d27b4d3ba41ab7f74feb5fb848460040160009054906101000a900473ffffffffffffffffffffffffffffffffffffffff168460405161089393929190611a54565b60405180910390a15050506108a6610f4e565b50565b6000600354905090565b60035481565b6108c1610eff565b60006001600083815260200190815260200160002090508060020154421161091e576040517f08c379a00000000000000000000000000000000000000000000000000000000081526004016109159061183e565b60405180910390fd5b8060010154816003015410610968576040517f08c379a000000000000000000000000000000000000000000000000000000000815260040161095f90611ad7565b60405180910390fd5b8060040160159054906101000a900460ff16156109ba576040517f08c379a00000000000000000000000000000000000000000000000000000000081526004016109b190611b43565b60405180910390fd5b60006002600084815260200190815260200160002060003373ffffffffffffffffffffffffffffffffffffffff1673ffffffffffffffffffffffffffffffffffffffff16815260200190815260200160002054905060008111610a52576040517f08c379a0000000000000000000000000000000000000000000000000000000008152600401610a4990611bd5565b60405180910390fd5b60006002600085815260200190815260200160002060003373ffffffffffffffffffffffffffffffffffffffff1673ffffffffffffffffffffffffffffffffffffffff1681526020019081526020016000208190555060003373ffffffffffffffffffffffffffffffffffffffff1682604051610ace906119d3565b60006040518083038185875af1925050503d8060008114610b0b576040519150601f19603f3d011682016040523d82523d6000602084013e610b10565b606091505b5050905080610b54576040517f08c379a0000000000000000000000000000000000000000000000000000000008152600401610b4b90611c41565b60405180910390fd5b7f7a482fdeb6bc9a1376f597068a214a7a39472bb2eff1b8cad21ba04f49ddca1b843384604051610b8793929190611a54565b60405180910390a1505050610b9a610f4e565b50565b60006002600084815260200190815260200160002060008373ffffffffffffffffffffffffffffffffffffffff1673ffffffffffffffffffffffffffffffffffffffff16815260200190815260200160002054905092915050565b600060016000838152602001908152602001600020905080600201544210610c55576040517f08c379a0000000000000000000000000000000000000000000000000000000008152600401610c4c90611cad565b60405180910390fd5b60003411610c98576040517f08c379a0000000000000000000000000000000000000000000000000000000008152600401610c8f90611d3f565b60405180910390fd5b346002600084815260200190815260200160002060003373ffffffffffffffffffffffffffffffffffffffff1673ffffffffffffffffffffffffffffffffffffffff1681526020019081526020016000206000828254610cf89190611d5f565b9250508190555034816003016000828254610d139190611d5f565b925050819055507f0a4a91237423e0a1766a761c7cb029311d8b95d6b1b81db1b949a70c98b4e08e823334604051610d4d93929190611a54565b60405180910390a15050565b60606000806000806000806000600160008a81526020019081526020016000206040518060e0016040529081600082018054610d949061139a565b80601f0160208091040260200160405190810160405280929190818152602001828054610dc09061139a565b8015610e0d5780601f10610de257610100808354040283529160200191610e0d565b820191906000526020600020905b815481529060010190602001808311610df057829003601f168201915b505050505081526020016001820154815260200160028201548152602001600382015481526020016004820160009054906101000a900473ffffffffffffffffffffffffffffffffffffffff1673ffffffffffffffffffffffffffffffffffffffff1673ffffffffffffffffffffffffffffffffffffffff1681526020016004820160149054906101000a900460ff161515151581526020016004820160159054906101000a900460ff1615151515815250509050806000015181602001518260400151836060015184608001518560a001518660c00151975097509750975097509750975050919395979092949650565b600260005403610f44576040517f08c379a0000000000000000000000000000000000000000000000000000000008152600401610f3b90611ddf565b60405180910390fd5b6002600081905550565b6001600081905550565b6000604051905090565b600080fd5b600080fd5b6000819050919050565b610f7f81610f6c565b8114610f8a57600080fd5b50565b600081359050610f9c81610f76565b92915050565b600060208284031215610fb857610fb7610f62565b5b6000610fc684828501610f8d565b91505092915050565b600081519050919050565b600082825260208201905092915050565b60005b83811015611009578082015181840152602081019050610fee565b60008484015250505050565b6000601f19601f8301169050919050565b600061103182610fcf565b61103b8185610fda565b935061104b818560208601610feb565b61105481611015565b840191505092915050565b61106881610f6c565b82525050565b600073ffffffffffffffffffffffffffffffffffffffff82169050919050565b60006110998261106e565b9050919050565b6110a98161108e565b82525050565b60008115159050919050565b6110c4816110af565b82525050565b600060e08201905081810360008301526110e4818a611026565b90506110f3602083018961105f565b611100604083018861105f565b61110d606083018761105f565b61111a60808301866110a0565b61112760a08301856110bb565b61113460c08301846110bb565b98975050505050505050565b600080fd5b600080fd5b7f4e487b7100000000000000000000000000000000000000000000000000000000600052604160045260246000fd5b61118282611015565b810181811067ffffffffffffffff821117156111a1576111a061114a565b5b80604052505050565b60006111b4610f58565b90506111c08282611179565b919050565b600067ffffffffffffffff8211156111e0576111df61114a565b5b6111e982611015565b9050602081019050919050565b82818337600083830152505050565b6000611218611213846111c5565b6111aa565b90508281526020810184848401111561123457611233611145565b5b61123f8482856111f6565b509392505050565b600082601f83011261125c5761125b611140565b5b813561126c848260208601611205565b91505092915050565b60008060006060848603121561128e5761128d610f62565b5b600084013567ffffffffffffffff8111156112ac576112ab610f67565b5b6112b886828701611247565b93505060206112c986828701610f8d565b92505060406112da86828701610f8d565b9150509250925092565b6112ed8161108e565b81146112f857600080fd5b50565b60008135905061130a816112e4565b92915050565b6000806040838503121561132757611326610f62565b5b600061133585828601610f8d565b9250506020611346858286016112fb565b9150509250929050565b6000602082019050611365600083018461105f565b92915050565b7f4e487b7100000000000000000000000000000000000000000000000000000000600052602260045260246000fd5b600060028204905060018216806113b257607f821691505b6020821081036113c5576113c461136b565b5b50919050565b7f476f616c206d7573742062652067726561746572207468616e20300000000000600082015250565b6000611401601b83610fda565b915061140c826113cb565b602082019050919050565b60006020820190508181036000830152611430816113f4565b9050919050565b7f446561646c696e65206d75737420626520696e20746865206675747572650000600082015250565b600061146d601e83610fda565b915061147882611437565b602082019050919050565b6000602082019050818103600083015261149c81611460565b9050919050565b7f4e487b7100000000000000000000000000000000000000000000000000000000600052601160045260246000fd5b60006114dd82610f6c565b91507fffffffffffffffffffffffffffffffffffffffffffffffffffffffffffffffff820361150f5761150e6114a3565b5b600182019050919050565b60008190508160005260206000209050919050565b60006020601f8301049050919050565b600082821b905092915050565b60006008830261157c7fffffffffffffffffffffffffffffffffffffffffffffffffffffffffffffffff8261153f565b611586868361153f565b95508019841693508086168417925050509392505050565b6000819050919050565b60006115c36115be6115b984610f6c565b61159e565b610f6c565b9050919050565b6000819050919050565b6115dd836115a8565b6115f16115e9826115ca565b84845461154c565b825550505050565b600090565b6116066115f9565b6116118184846115d4565b505050565b5b818110156116355761162a6000826115fe565b600181019050611617565b5050565b601f82111561167a5761164b8161151a565b6116548461152f565b81016020851015611663578190505b61167761166f8561152f565b830182611616565b50505b505050565b600082821c905092915050565b600061169d6000198460080261167f565b1980831691505092915050565b60006116b6838361168c565b9150826002028217905092915050565b6116cf82610fcf565b67ffffffffffffffff8111156116e8576116e761114a565b5b6116f2825461139a565b6116fd828285611639565b600060209050601f831160018114611730576000841561171e578287015190505b61172885826116aa565b865550611790565b601f19841661173e8661151a565b60005b8281101561176657848901518255600182019150602085019450602081019050611741565b86831015611783578489015161177f601f89168261168c565b8355505b6001600288020188555050505b505050505050565b600060a0820190506117ad600083018861105f565b81810360208301526117bf8187611026565b90506117ce604083018661105f565b6117db606083018561105f565b6117e860808301846110a0565b9695505050505050565b7f43616d706169676e207374696c6c206163746976650000000000000000000000600082015250565b6000611828601583610fda565b9150611833826117f2565b602082019050919050565b600060208201905081810360008301526118578161181b565b9050919050565b7f46756e64696e6720676f616c206e6f74206d6574000000000000000000000000600082015250565b6000611894601483610fda565b915061189f8261185e565b602082019050919050565b600060208201905081810360008301526118c381611887565b9050919050565b7f46756e647320616c72656164792072656c656173656400000000000000000000600082015250565b6000611900601683610fda565b915061190b826118ca565b602082019050919050565b6000602082019050818103600083015261192f816118f3565b9050919050565b7f4f6e6c792063726561746f722063616e2072656c656173652066756e64730000600082015250565b600061196c601e83610fda565b915061197782611936565b602082019050919050565b6000602082019050818103600083015261199b8161195f565b9050919050565b600081905092915050565b50565b60006119bd6000836119a2565b91506119c8826119ad565b600082019050919050565b60006119de826119b0565b9150819050919050565b7f4661696c656420746f2073656e64204574686572000000000000000000000000600082015250565b6000611a1e601483610fda565b9150611a29826119e8565b602082019050919050565b60006020820190508181036000830152611a4d81611a11565b9050919050565b6000606082019050611a69600083018661105f565b611a7660208301856110a0565b611a83604083018461105f565b949350505050565b7f46756e64696e6720676f616c20776173206d6574000000000000000000000000600082015250565b6000611ac1601483610fda565b9150611acc82611a8b565b602082019050919050565b60006020820190508181036000830152611af081611ab4565b9050919050565b7f526566756e647320616c72656164792070726f63657373656400000000000000600082015250565b6000611b2d601983610fda565b9150611b3882611af7565b602082019050919050565b60006020820190508181036000830152611b5c81611b20565b9050919050565b7f4e6f20636f6e747269627574696f6e7320666f756e6420666f722073656e646560008201527f7200000000000000000000000000000000000000000000000000000000000000602082015250565b6000611bbf602183610fda565b9150611bca82611b63565b604082019050919050565b60006020820190508181036000830152611bee81611bb2565b9050919050565b7f526566756e64206661696c656400000000000000000000000000000000000000600082015250565b6000611c2b600d83610fda565b9150611c3682611bf5565b602082019050919050565b60006020820190508181036000830152611c5a81611c1e565b9050919050565b7f43616d706169676e2068617320656e6465640000000000000000000000000000600082015250565b6000611c97601283610fda565b9150611ca282611c61565b602082019050919050565b60006020820190508181036000830152611cc681611c8a565b9050919050565b7f436f6e747269627574696f6e206d75737420626520677265617465722074686160008201527f6e20300000000000000000000000000000000000000000000000000000000000602082015250565b6000611d29602383610fda565b9150611d3482611ccd565b604082019050919050565b60006020820190508181036000830152611d5881611d1c565b9050919050565b6000611d6a82610f6c565b9150611d7583610f6c565b9250828201905080821115611d8d57611d8c6114a3565b5b92915050565b7f5265656e7472616e637947756172643a207265656e7472616e742063616c6c00600082015250565b6000611dc9601f83610fda565b9150611dd482611d93565b602082019050919050565b60006020820190508181036000830152611df881611dbc565b905091905056fea2646970667358221220cd7bf0c57c881357028f77c44cc163b7205267e0573ef91c9c8da85d4d9e5c3564736f6c634300081c0033",
    "linkReferences": {},
    "deployedLinkReferences": {}
}